:100000000C94E3010C9414020C9414020C9414024A
:100010000C9414020C9414020C9414020C94140208
:100020000C9414020C9414020C9414020C941402F8
:100030000C9414020C9414020C9414020C941402E8
:100040000C9414020C9414020C9414020C941402D8
:100050000C9414020C9414020C9414020C94352188
:100060000C9414020C94161B0C94061C0C94140291
:100070000C9414020C9414020C9414020C941402A8
:100080000C9414020C9414020C9414020C94140298
:100090000C944A1B0C94451C0C9414020C943119BA
:1000A0000C9414020C9414020C9414020C94140278
:1000B0000C9414020C9414020C9414020C94140268
:1000C0000C9414020C9414020C9414020C947E1BD5
:1000D0000C94841C0C9414020C94B21B0C94C31C3E
:1000E0000C9414024F225222452249228922562280
:1000F0005A226022642268226E227222762289228B
:100100007C2280228422084AD73B3BCE016E84BCED
:10011000BFFDC12F3D6C74319ABD56833DDA3D0061
:10012000C77F11BED9E4BB4C3E916BAAAABE0000AA
:1001300000803F000C9472220C94B80D0C944D0773
:100140000C9449220C948C080C9492080C94522222
:100150000C948F020C948C020C947D070C948717DE
:100160000C945A220C9480220C947F100C94BB02A5
:100170000C949B020C94E4030C94BE0F0C94752019
:100180000C94E51B0C94B0020C9480020C94C604F1
:100190000C94B2170C9416020C9423160C94DA17D4
:1001A0000C94B9170C94A60B0C94110C0C94B60378
:1001B0000C94AD020C94F8040C94AE1A0C947C22AE
:1001C0000C94E51E0C94A3170C945E1E0C946E22E6
:1001D0000C94A00B0C9489020C94621A0C94920259
:1001E0000C9483070C949E020C9495020C94B50217
:1001F0000C945F120C9468220C9484220C943608A0
:100200000C9474060C94861D0C9403060C948F17A2
:100210000C9464220C944F180C94C9150C94A402ED
:100220000C94E0170C9455090C9476220C944522FA
:100230000C94B91A0C9409060C9460220C94E70AE9
:100240000C94210D0C94581E0C943A020C94BE0D83
:100250000C94A7020C94721A0C944F220C94562200
:100260000C94B3170C9483020C9491100C94980284
:100270000C94C2050C945B090C9486020C94AA029F
:100280000C948E1A0C9489220C94A1024572726F00
:10029000722072656164696E672073656E736F7238
:1002A00000693263526561642074696D656F7574AD
:1002B0000069326352656164206661696C65643A05
:1002C00020006932635772697465206661696C65E4
:1002D000643A20000000090A02080B0C0D0706030F
:1002E0000401000000000000000000000000000009
:1002F00000000000000000000000000000000000FE
:1003000011100F00000000000000000000000000BD
:100310000000000000000000000001021020200882
:100320000810204010204080020102010804020150
:1003300001020408102040808040201008040201BF
:100340008004020180402010080402010804020118
:10035000010204081020408001020408102040809F
:1003600005050505070508080808020202020A0A31
:10037000080804040404010101010101010103034F
:10038000030303030303040707070C0C0C0C0C0CFA
:100390000C0C0202020206060606060606060B0BF7
:1003A0000B0B0B0B0B0B00002200250028002B0071
:1003B0002E003100340002010000050108010B018C
:1003C000BE0F4F18861D11241FBECFEFD1E2DEBF36
:1003D000CDBF00E00CBF14E0A0E0B2E0EEEFFCE423
:1003E00000E00BBF02C007900D92AC38B107D9F7FF
:1003F0002DE0ACE8B4E001C01D92AD3FB207E1F7DB
:1004000011E0C3EED1E000E006C021970109802F82
:10041000FE010E940726C03ED10780E00807A9F729
:100420000E94411F0C947D260C940000DC01FB010E
:1004300012968C911297808313968C9113978183D7
:1004400014968C911497828315968C9115978383BB
:1004500016968C911697848317968C91179785839F
:1004600018968C911897868319968C91878388E0CB
:1004700090E00895FC01DB014C9150E060E070E0F9
:10048000428353836483758311968C911197582B03
:10049000428353836483758312968C911297682BE1
:1004A000428353836483758313968C911397782BBF
:1004B000428353836483758314964C91149750E060
:1004C00060E070E0468357836087718715968C9152
:1004D0001597582B468357836087718716968C91A2
:1004E0001697682B468357836087718717968C9180
:1004F000782B468357836087718788E090E0089562
:1005000086E092E0089584E192E0089585E392E028
:1005100008958EE492E008958FE692E0089582E8CF
:1005200092E0089580E594E0089583EA92E00895CA
:1005300084EC92E0089584ED92E0089585EF92E0D6
:1005400008958EE093E008958FE293E0089585E4A6
:1005500093E0089586E693E0089586E793E0089592
:100560008A579B4FFC0180810895A5E0B0E0EBEB3A
:10057000F2E00C942626643671053CF0FC01EA5743
:10058000FB4F2081222309F46FC0DA017B018C012B
:10059000BC01615E7D4FED91FC910190F081E02DF9
:1005A000CA011995B801685E7D4F2FEFDB012C93CE
:1005B000F801E75EFD4F2EEF208331968083319660
:1005C00090833196292F280F209520833196E08241
:1005D0001696FC9245E050E020E030E07C01B6E069
:1005E000EB0EF11CE416F50634F0A1912A0F311D33
:1005F0004F5F5F4FF7CF7C01E8E0EE0EF11C800FFC
:10060000911FFC01E15EFD4F20952083F1E0EF1684
:10061000F2E0FF067CF4D80112968D919C9113971D
:10062000DC01ED91FC910280F381E02DA701199589
:10063000C7011CC082E094E09A83898383E08B83A6
:1006400087E993E09D838C83D801ED91FC91019023
:10065000F081E02DAE014F5F5F4F67E070E0C801B1
:1006600019958FEF9FEF02C080E090E02596E6E0BD
:100670000C9442268F929F92AF92BF92CF92DF92BC
:10068000EF92FF92CF93DF93EC014A015B01DB0114
:10069000CA0157E1B595A795979587955A95D1F7D2
:1006A0009927AA27BB270097A105B10521F08058FB
:1006B0009C4FAF4FBF4F188219821A82B501A40117
:1006C00025E0440F551F661F771F2A95D1F74B83EE
:1006D000B501A40133E075956795579547953A950F
:1006E000D1F74C83B501A401EBE07595679557955B
:1006F0004795EA95D1F74D83B501A401F3E17595CE
:10070000679557954795FA95D1F7242F2F70AC012F
:10071000BD0134E0440F551F661F771F3A95D1F78E
:10072000422B4E836C017D0144E0F594E794D7940D
:10073000C7944A95D1F720E030E0A901C501B40182
:100740000E94982387FD02C0CF8203C08C2D806851
:100750008F8388E090E0DF91CF91FF90EF90DF9062
:10076000CF90BF90AF909F908F900895EF92FF929F
:100770000F931F93CF93DF937C018B01FC01428188
:10078000538164817581C8010E943A03EC01F7012D
:100790004681578160857185C8018C0F9D1F0E941D
:1007A0003A03C80FD91FF7014285538564857585C3
:1007B000C8018C0F9D1F0E943A038C0F9D1FCDB75F
:1007C000DEB7E6E00C944226EF92FF920F931F9360
:1007D000CF93DF937C018B01FC01428153816481C3
:1007E0007581C8010E943A03EC01F70146815781E7
:1007F00060857185C8018C0F9D1F0E943A03C80F48
:10080000D91FF7014285538564857585C8018C0F12
:100810009D1F0E943A03C80FD91FF70146855785CF
:1008200060897189C8018C0F9D1F0E943A038C0F4B
:100830009D1FCDB7DEB7E6E00C9442268F929F92C3
:10084000AF92BF92CF92DF92EF92FF920F931F93DE
:10085000FC01DB01C380C294C69427E0C2228C2C29
:10086000912CA12CB12C8D929D92AD92BC9213979C
:10087000048110E020E030E043E0000F111F221F50
:10088000331F4A95D1F768017901C828D928EA2889
:10089000FB28CD92DD92ED92FC921397458150E0BA
:1008A00060E070E01BE0440F551F661F771F1A952C
:1008B000D1F78A019B010C291D292E293F290D936F
:1008C0001D932D933C93139746814F7050E060E049
:1008D00070E083E1440F551F661F771F8A95D1F79B
:1008E000402B512B622B732B4D935D936D937C9317
:1008F0001397868182958F7007810F7710E020E033
:1009000030E094E0000F111F221F331F9A95D1F79A
:10091000082B0115110521053105A1F000581340E0
:100920002109310997E1000F111F221F331F9A95EA
:10093000D1F7042B152B262B372B0D931D932D93BD
:100940003C9313974781407850E060E070E0742F4B
:100950006627552744270D911D912D913C911397A2
:10096000402B512B622B732B4D935D936D937C9396
:10097000139788E090E01F910F91FF90EF90DF9028
:10098000CF90BF90AF909F908F900895EF92FF927D
:100990000F931F93CF93DF938C017B01BC016E5F9C
:1009A0007F4FC7010E941E04EC01B8016A5F7F4FB0
:1009B000C7018C0F9D1F0E941E04C80FD91FB801CC
:1009C000665F7F4FC7018C0F9D1F0E941E04C80FDA
:1009D000D91FB801625F7F4FC7018C0F9D1F0E9416
:1009E0001E048C0F9D1FCDB7DEB7E6E00C944226A7
:1009F000EF92FF920F931F93CF93DF938C017B01B4
:100A0000BC016E5F7F4FC7010E941E04EC01B8015C
:100A10006A5F7F4FC7018C0F9D1F0E941E04C80F85
:100A2000D91FB801665F7F4FC7018C0F9D1F0E94C1
:100A30001E048C0F9D1FCDB7DEB7E6E00C94422656
:100A4000CF93DF93FC018EE394E0918380838AE16E
:100A500094E0938382831482158216821782108613
:100A600011861286138614861586168617868FECD5
:100A700093E0918B808B86E294E0938B828B148A37
:100A8000158A168A178A108E118E128E138E148E66
:100A9000158E168E178E10A211A212A213A2DF01BC
:100AA0009496CF01885B9F4F1D921D921D921D92BF
:100AB000A817B907C9F782E394E011969C938E9327
:100AC00012961D921D921D921C92159716961D92BC
:100AD0001D921D921C9219971A961D921D921D929D
:100AE0001C921D97EF01CA5ADF4FDF01A658BF4F76
:100AF0001992199219921992AC17BD07C9F782E39E
:100B000094E011969C938E9312961D921D921D92C5
:100B10001C92159716961D921D921D921C92199764
:100B20001A961D921D921D921C921D97DF01A857C7
:100B3000BF4FE455FF4F1D921D921D921D92EA1763
:100B4000FB07C9F7DF91CF910895CF92DF92EF9223
:100B5000FF9220E030E06A017B01022E04C0F6948F
:100B6000E794D794C7940A94D2F7FC01C192CF01BD
:100B7000285F3F4F2032310571F7FF90EF90DF90F3
:100B8000CF900895EF92FF920F931F93CF93DF932F
:100B90008C01EB01FC0182818883838189838481BC
:100BA0008A8385818B8386818C8387818D838085F1
:100BB0008E8381858F8382858887838589878485D5
:100BC0008A8785858B87A685B785FD0101900020E2
:100BD000E9F731977F01EA1AFB0AA70160E070E0AC
:100BE000CE010C960E94A505F80166857785A701C0
:100BF000CE0140960E947426C7014096CDB7DEB75D
:100C0000E6E00C944226A0E0B0E0E9E0F6E00C94C7
:100C100022268C017B0102960E94C205EC01B701DD
:100C2000680F791FC80142960E94E403C80FD91FBC
:100C3000680184E2C80ED11C5801E8E4AE0EB11C74
:100C4000F60141915191619171916F01C7018C0F32
:100C50009D1F0E943A03C80FD91FCA14DB0481F7F5
:100C6000B7016C0F7D1FC6010E94B603C80FD91FC4
:100C70006801F6E5CF0ED11C58018AE7A80EB11C19
:100C8000F60141915191619171916F01C7018C0FF2
:100C90009D1F0E943A03C80FD91FAC14BD0481F7F1
:100CA000B7016C0F7D1FC5010E94B603C80FD91F85
:100CB0006801F8E8CF0ED11C04551F4FF601419191
:100CC0005191619171916F01C7018C0F9D1F0E941D
:100CD0003A03C80FD91FC016D10681F7CE01CDB790
:100CE000DEB7EAE00C943E264F925F926F927F92BD
:100CF000AF92BF92CF92DF92EF92FF920F931F932A
:100D0000CF93DF93EC018B018A81FB0180838B8180
:100D100081838C8182838D818383DB0140E050E07D
:100D2000BA01E4E0F0E01496CA80DB80EC80FD803C
:100D3000CF0104964C155D056E057F05C8F42A8524
:100D40003B85E20FF31F3497D080F18032812381FD
:100D5000DC921196FC92119712963C93129713967F
:100D60002C931397FC014F5F5F4F6F4F7F4FDBCF8B
:100D70005F01A00EB11E2C85F50120832D852183F6
:100D80002E8522832F852383D50140E050E0BA01D0
:100D9000CC84DD84EE84FF849C012C5F3F4F4C1596
:100DA0005D056E057F05F8F4CD018A199B09EC8875
:100DB000FD888E0D9F1DFC01D080E180F280838133
:100DC0001496DC9214971596EC9215971696FC9251
:100DD000169717968C931797C9014F5F5F4F6F4F08
:100DE0007F4F1496D5CFF801E80FF91F8E898083C5
:100DF0008F898183888D8283898D83837901A12C5A
:100E0000B12C412C512C32018E899F89A88DB98D2E
:100E1000481659066A067B0680F5EC8DFD8DEA0DB5
:100E2000FB1DA081B181FD0101900020E9F7319700
:100E30006F01CA1ADB0AA60160E070E0C8018E0DDE
:100E40009F1D0E94A505F4E0EF0EF11CEC8DFD8DB9
:100E5000EA0DFB1D60817181A601C8018E0D9F1DE9
:100E60000E947426EC0CFD1C8FEF481A580A680A81
:100E7000780AE2E0AE0EB11CC7CFC701DF91CF9177
:100E80001F910F91FF90EF90DF90CF90BF90AF90A8
:100E90007F906F905F904F900895EF92FF920F9325
:100EA0001F93CF93DF938C017B01DC0112962C9171
:100EB0001297FB012193CF011396ED91FC911497AA
:100EC000EF0109900020E9F72197CE1BDF0BAE015F
:100ED00060E070E00E94A505D80113966D917C91A9
:100EE0001497AE01C70105960E947426CE0105969F
:100EF000CDB7DEB7E6E00C944226A0E0B0E0E3E830
:100F0000F7E00C9424267C018B01DC0112968C9175
:100F10001297FB01808313968C911397818314960B
:100F2000ED91FC911597EF0109900020E9F72197C9
:100F3000CE1BDF0BAE0160E070E0C80102960E949C
:100F4000A505D70114966D917C911597AE01C80146
:100F500006960E947426CE010696F701A681B781F7
:100F6000FD0101900020E9F731976F01CA1ADB0AF1
:100F7000A60160E070E0800F911F0E94A5052A96EF
:100F8000D70116966D917C911797A601C8018C0F19
:100F90009D1F0E947426CC0DDD1DD7011896ED9182
:100FA000FC911997DF010D900020E9F711976D0171
:100FB000CE1ADF0AA60160E070E0C8018C0F9D1F09
:100FC0000E94A5052496F70160857185A601C801D8
:100FD0008C0F9D1F0E947426C6018C0F9D1FD70188
:100FE0001A966C911A971B964C911B971C963C91E4
:100FF0001C971D962C91F801E80FF91F608341831F
:10100000328323830496CDB7DEB7E8E00C94402604
:10101000CF92DF92EF92FF92FC0110821182128236
:101020001382DB0120E030E04D9150E0022E02C03F
:10103000440F551F0A94E2F7052E000C660B770B40
:10104000C080D180E280F3804C295D296E297F2900
:101050004083518362837383285F3F4F2032310581
:1010600019F7FF90EF90DF90CF9008954F925F9225
:101070006F927F928F929F92AF92BF92EF92FF9268
:101080000F931F93CF93DF9300D01F92CDB7DEB79E
:101090007C018B01FB018191BF01F7018283CE01AD
:1010A00001960E94080889819A81AB81BC814C011C
:1010B0005D01F5E08F0E911CA11CB11CA8014C5FD5
:1010C0005F4FFA0125E030E02901612C712C4814B2
:1010D00059046A047B0428F4618161932F5F3F4FB8
:1010E000F3CFF801E80FF91F1482F701548343830B
:1010F00005960F900F900F900F90DF91CF911F9159
:101100000F91FF90EF90BF90AF909F908F907F9046
:101110006F905F904F900895ACE0B0E0E2E9F8E0A6
:101120000C941C267C018B01DB018C9190E0F70173
:101130009383828311962C91922B938382836E5F8B
:101140007F4FCE0109960E94080889849A84AB8457
:10115000BC8424013501F6E04F0E511C611C711C4A
:1011600098012B5F3F4FF90186E090E0AC0160E011
:1011700070E0441555056605770520F441814193DB
:101180000196F4CFF801E80DF91D1582D7011596E7
:101190003C932E931497B4016A5F7F4F600F711FC9
:1011A000CE0105960E940808BAE08B0E911C4D8076
:1011B0005E806F807884A401092C000C660B770B8D
:1011C000440D551D661D771DD801A80DB91DCD0113
:1011D000801B910B5C01C12CD12CA416B506C60650
:1011E000D70628F48D91FD0132978083F0CF54010A
:1011F000A40CB51CB8016A0D7B1DFB013197108250
:10120000C4010197800F911FF70197838683CE0158
:1012100001960E94080895012C5F3F4F89819A81B1
:10122000AB81BC812901032E000C66087708480EAB
:10123000591E6A1E7B1EF5013396E00FF11FA901AE
:101240004A01A12CB12C84149504A604B70428F4F7
:10125000618161934F5F5F4FF3CF820F931FF8015E
:10126000E80FF91FDF0111971C9221503109020F7D
:10127000131FD70119961C930E9318972181428151
:1012800050E060E070E0BA0155274427522B2081DE
:10129000422B2381722BF70142875387648775871E
:1012A00004962C96E0E10C943826A0E1B0E0EBE542
:1012B000F9E00C941A268C016B01DB018D909D9056
:1012C000AD90BC90FC0182819381A481B581881589
:1012D0009905AA05BB0570F4B401660F771F660F68
:1012E000771F828593850E946F20D8011B969C935F
:1012F0008E931A97F80182829382A482B582960116
:10130000812C912C540144E050E0B8016A5F7F4F7A
:101310002C5F3F4FF80182819381A481B581FA014E
:1013200034961F0188169906AA06BB0650F5D90106
:101330001196FC90119712968C9190E0A0E0B0E08D
:10134000DC01992788279F29F901F0808F29F380F4
:10135000BF29F80186839783A087B187DA01A101AD
:10136000149782859385A80FB91F84E0FB01019033
:101370000D928A95E1F7FFEF8F1A9F0AAF0ABF0A15
:10138000C7CF4601840E951ED4018C9111969C9175
:10139000119712964C901297512C612C712C32019E
:1013A00055244424592A482A13968C91782A5F019F
:1013B000F80184859585A685B78584159505A605CC
:1013C000B70570F4B201660F771F660F771F848927
:1013D00095890E946F20D80155969C938E935497BF
:1013E000F8014486558666867786C401412C512CC7
:1013F00032019801205F3F4FD8011C964D915D91BD
:101400006D917C911F97F50134964416550666063A
:10141000770698F5DC011596FC90159716964C9179
:10142000169750E060E070E0BA01552744275F2925
:101430001496FC9014974F291796FC907F29D80199
:1014400050964D935D936D937C9353975F01AC01E0
:101450004819590954960D90BC91A02DA40FB51FA1
:1014600044E0F90101900D924A95E1F7BFEF4B1A64
:101470005B0A6B0A7B0A0496BFCFD601AA0DBB1D7F
:101480008C9111969C91119712968C901297912C99
:10149000A12CB12C540199248824992A882A1396C6
:1014A0008C91B82A7F01F80186899789A08DB18D2A
:1014B00088159905AA05BB0560F4B401660F771F6E
:1014C000848D958D0E946F20D8015D969C938E939C
:1014D0005C97F801868A978AA08EB18E212C312CD8
:1014E000812C912C54019801265E3F4F3A87298721
:1014F000F80186899789A08DB18D88169906AA066C
:10150000BB0608F05FC0B6016E0D7F1DCE010196CF
:101510000E94080897012C5F3F4F388B2F87498125
:101520005A816B817C81C901330FAA0BBB0B2C0143
:101530003D01440E551E661E771E4B865C866D86E9
:101540007E8623E0E20EF11CF601EE0DFF1D2F85D5
:101550003889C901A0E0B0E04B845C846D847E844E
:1015600084159505A605B70528F4A181A1932F5FE1
:101570003F4FEFCF6F847888460D571DF601E40F7B
:10158000F51F31971082C30101978C0D9D1DD80165
:101590005B969C938E935A977A015C96ED91FC91A1
:1015A0005D97E20DF31DA985BA858D919C9191837C
:1015B0008083BFEF8B1A9B0AAB0ABB0AE2E02E0EB8
:1015C000311C96CFC7016096E2E10C9436264F920B
:1015D0005F926F927F928F929F92AF92BF92EF92A3
:1015E000FF920F931F93CF93DF9300D01F92CDB73D
:1015F000DEB77C018B01FB01808190E0A0E0B0E0D0
:10160000F70182839383A483B583FB012181922B0D
:10161000F70182839383A483B583FB012281A22BEC
:10162000F70182839383A483B583FB012381B22BCB
:10163000F70182839383A483B583FB01848190E0C7
:10164000A0E0B0E0F70186839783A087B187FB0114
:101650002581922BF70186839783A087B187FB01B1
:101660002681A22BF70186839783A087B187FB0190
:101670002781B22BF70186839783A087B187FB016F
:10168000808590E0A0E0B0E0F70182879387A4878F
:10169000B587FB012185922BF70182879387A48769
:1016A000B587FB012285A22BF70182879387A48748
:1016B000B587FB012385B22BF70182879387A48727
:1016C000B587645F7F4FCE0101960E94080889812B
:1016D0009A81AB81BC814C015D01F0E18F0E911CC0
:1016E000A11CB11CA801415F5F4FFA0120E130E06D
:1016F0002901612C712C481459046A047B0428F4D4
:10170000618161932F5F3F4FF3CFF801E80FF91F1D
:101710001786F7015787468740960F900F900F90D6
:101720000F90DF91CF911F910F91FF90EF90BF909D
:10173000AF909F908F907F906F905F904F900895A3
:10174000A0E0B0E0E6EAFBE00C9422268C017B01ED
:1017500002960E94E70AEC01B701680F791FC801E1
:1017600042960E94C604C80FD91F680184E2C80EC1
:10177000D11C580188E4A80EB11CB601C7018C0F1A
:101780009D1F0E941E04C80FD91F84E0C80ED11CE3
:10179000AC14BD0491F7B7016C0F7D1FC5010E9409
:1017A000F804C80FD91F680186E5C80ED11C58017E
:1017B0008AE7A80EB11CB601C7018C0F9D1F0E94BD
:1017C0001E04C80FD91F84E0C80ED11CCA14DB0444
:1017D00091F7B7016C0F7D1FC6010E94F804C80F76
:1017E000D91F680188E8C80ED11C04551F4FB601E7
:1017F000C7018C0F9D1F0E941E04C80FD91F84E0D3
:10180000C80ED11CC016D10691F7CE01CDB7DEB7F8
:10181000EAE00C943E26AAE0B0E0E1E1FCE00C94A2
:1018200028268C018AEE93E09A8389831B821C828E
:101830001D821E821F82188619861A86D801ED9194
:10184000FC910190F081E02DAE014F5F5F4F6AE0A7
:1018500070E0C80119950E947F21F80160877187A7
:10186000828793872A96E4E00C9444264F925F92F5
:101870006F927F92AF92BF92CF92DF92EF92FF92E0
:101880000F931F93CF93DF93CDB7DEB72E970FB68D
:10189000F894DEBF0FBECDBF8C0186EF93E09A8334
:1018A00089831C821B828FEC93E09E838D839887B3
:1018B0008F839A8789871B861C861D861E866801F2
:1018C00088EEC81A8BEFD80A7801A6EBEA1AABEFBC
:1018D000FA0A412C92E0592E612C712CD601ED911F
:1018E000FC913097A9F1848195819C838B838081C1
:1018F00091819E838D8382819381DC01ED91FC91A6
:101900000480F581E02D199598878F83D601ED919C
:10191000FC9182819381DC01ED91FC910680F7813D
:10192000E02D19959A8789874B865C866D867E8621
:10193000D601ED91FC9160857185D801ED91FC9106
:101940000190F081E02DAE014F5F5F4FC801199506
:10195000B2E0CB0ED11CCE14DF0409F0BFCF68017A
:10196000E4E8CE1AEBEFDE0A412C82E0582E612C1F
:10197000712CF701A081B1811097E1F112968D9140
:101980009C9113979C838B8314968D919C911597B2
:101990009E838D83ED91FC9111970480F581E02D5C
:1019A000CD01199598878F83D7018D919C91DC018A
:1019B000ED91FC910680F781E02D19959A87898732
:1019C0004B865C866D867E86D801ED91FC91A08069
:1019D000B180F70180819181DC01ED91FC91028061
:1019E000F381E02D1995AE014F5F5F4FBC01C80137
:1019F000F5011995F2E0EF0EF11CCE14DF0409F0A9
:101A0000B8CFF801EA57FB4F81E080832E960FB6DE
:101A1000F894DEBF0FBECDBFDF91CF911F910F9124
:101A2000FF90EF90DF90CF90BF90AF907F906F903E
:101A30005F904F900895AAE0B0E0E1E2FDE00C94E1
:101A400020268C015B018AEE93E09A8389831B82B6
:101A50001C821D821E821F82188619861A860E9489
:101A60007F21F801C084D184E284F3849B01AC011E
:101A70002C193D094E095F0969017A01B501CE01B2
:101A800001960E943A0288EE882E83E0982EA12CBF
:101A9000B12CC701B601A50194010E94E525CB80B8
:101AA000DC80ED80FE80C20ED31EE41EF51ECB82CC
:101AB000DC82ED82FE829B01AC0160E472E48FE087
:101AC00090E00E94C125CF80D884E984FA84DC01AB
:101AD000CB018C0D9D1DAE1DBF1D8F839887A987DF
:101AE000BA870E947F21CB80DC80ED80FE8031E0D0
:101AF000C31AD108E108F108A50194010E94E52567
:101B0000C21AD30AE40AF50AF801C486D586E68625
:101B1000F786CF80D884E984FA84F6E3DF1AF5E605
:101B2000EF0AF4ECFF0A9B01AC0160E472E48FE081
:101B300090E00E94C125C61AD70AE80AF90AF801FE
:101B4000C08AD18AE28AF38AB801605F7F4FC801F8
:101B50000C960E94C3150E947F21F801E557FB4FA8
:101B600060837183828393832A96ECE00C943C26F5
:101B7000A0E1B0E0EEEBFDE00C941A26988B8F8785
:101B80000E947F214B015C012F85388925573B4FEF
:101B90003E832D83F90180819181A281B381A501CA
:101BA0009401281B390B4A0B5B0BDA01C901893FF1
:101BB0009A42A105B10528F0EF85F889EA57FB4F55
:101BC00010820F85188904581B4FD8018D919C9164
:101BD000892B81F0EF85F889E157FB4F8081918156
:101BE000A281B38188159905AA05BB0518F4F801EF
:101BF000118210826F847888FCE76F1AFBEF7F0AEE
:101C00002F85388920583B4F3A832983CF84D88841
:101C100038E1C30ED11C4F8558894A575B4F58870E
:101C20004F838F8598898C569B4F9A878987AF857C
:101C3000B889AD56BB4FBC87AB87EF84F888B2E854
:101C4000EB1ABBEFFB0AEF85F889EE57FB4FFC83DD
:101C5000EB832F85388921573B4F3E872D87140111
:101C6000250134E1230E311C411C511CEF85F889FC
:101C700084899589A689B789892B8A2B8B2B89F42E
:101C8000AF85B88912968D919C911397DC01ED91E7
:101C9000FC910680F781E02D19959C0197FF15C0F6
:101CA0003CC10E947F21DC01CB0188199909AA0956
:101CB000BB09EF85F8892489358946895789281712
:101CC00039074A075B07E0F650C1D3018D919C911B
:101CD0001197820F931F8D939C93F801408151813E
:101CE00047305105D9F4AB81BC818D919C911197FE
:101CF000AC014F5F5F4F4D935C93EF85F889E80F20
:101D0000F91F208FF7018081918101979183808352
:101D1000892B09F0ABCF88E090E06FC041155105E9
:101D200029F52F3F310569F481E090E0F8019183B6
:101D30008083AD85BE852D923D924D925C92139726
:101D400095CF0E947F21DC01CB0188199909AA094E
:101D5000BB0989389341A105B10508F487CF2F85C8
:101D600038892A573B4FD9011C92FFC04130510599
:101D700091F42E3F310519F482E090E02EC01182DB
:101D80001082EF81F8858081811170CF8F859889CD
:101D90000E940B0C6BCF4230510581F4D7012D937B
:101DA0003C93EB81FC811182108283E090E0D801AA
:101DB0008D939C93F3013183208358CF4330510599
:101DC00081F4322F2227D7018D919C911197280FF2
:101DD000391F2D933C9384E090E0F8019183808338
:101DE00045CF4430510589F460E071E00E94D1256F
:101DF0008F3F910531F485E090E0D8018D939C935D
:101E000035CFF8011182108231CF4530510569F488
:101E1000A981BA812D933C9346E050E0F8015183AB
:101E20004083D3012D933C9321CF4630510599F443
:101E3000322F2227E981FA8180819181280F391F71
:101E400031832083E7E0F0E0D801ED93FC93D701E4
:101E50008D919C915DCF4830510509F007CFF80175
:101E60001182108260E071E00E94D1258F3F9105C0
:101E700009F0FCCEA981BA818D919C910097C9F49B
:101E80008F8598890E940B0C8F8598890E94360C4B
:101E9000EF85F889E957FB4F80829182A282B38255
:101EA000ED81FE8180829182A282B3828FEF9FEFCB
:101EB00061C08A30910531F4B6018F8598890E94FE
:101EC0001B0DD4CE8630910551F4B60189859A85D3
:101ED0000E94550981E0AB85BC858C93C7CE8B30C1
:101EE000910521F4EF81F8851082C0CEFC01EF53FB
:101EF000FE4FEE0FFF1F2F853889E20FF31F808101
:101F00009181009709F4B2CEDC01ED91FC91019032
:101F1000F081E02DB6011995A9CEEF85F889EA5731
:101F2000FB4F8081882321F10F85188909571B4FAA
:101F3000F80180819181A281B381A5019401281BC0
:101F4000390B4A0B5B0BDA01C901853C9940A105AD
:101F5000B10570F08F8598890E940B0CD8018D9285
:101F60009D92AD92BC92139703C08EEF9FEF02C07B
:101F700080E090E06096E2E10C94362680E69AE0FC
:101F80000E94EB1588E39AE00E94EB158AE494E046
:101F900090935505809354058EEA9BE090935705E6
:101FA0008093560580E091EEA0E0B0E08093580564
:101FB00090935905A0935A05B0935B051092DA09E6
:101FC0008EE094E09093E9098093E8091092EA0981
:101FD0001092EB091092EC091092ED091092F3099E
:101FE0001092F2091092F4091092F5091092F60974
:101FF0001092F7091092FD091092FC091092FE0947
:102000001092FF091092000A1092010A1092050A1C
:102010001092040A8CE699E0EEE9F9E0DC011D92E9
:102020001D92EA17FB07D9F720ED39E011921192C2
:102030002E173F07D9F7ACE6B5E0ECE6F7E01D92C6
:10204000EA17FB07E1F711928E179F07E1F710924D
:1020500068051092690510926A0510926B0586E971
:1020600094E00E94200580ED93E090938D0480938E
:102070008C0486E994E090938F0480938E041092F0
:102080009504109294040895FF920F931F93CF9399
:10209000DF93F82E8B01C42FD22F68E688E89AE0F0
:1020A0000E9432186F2D88E89AE00E94DA174C2FB0
:1020B00050E0B80188E89AE00E94B3176D2F88E8D5
:1020C0009AE00E943C18C82F882369F062EC72E005
:1020D0008EEA9BE00E94901E4AE050E06C2F8EEA50
:1020E0009BE00E942F1F8C2FCDB7DEB7E5E00C944C
:1020F0004326A1E0B0E0EFE7F0E10C942A266983E3
:10210000242F41E0BE016F5F7F4F0E944410219653
:10211000E2E00C944626A0E0B0E0E1E9F0E10C94A6
:102120002426C82FF62E072F142F68E688E89AE099
:102130000E9432186C2F88E89AE00E94DA1760E05B
:1021400088E89AE00E943C18C82F882379F061EB58
:1021500072E08EEA9BE00E94901E4AE050E06C2FF5
:102160008EEA9BE00E942F1F8C2F44C021E0412F5C
:1021700068E688E89AE00E942518CF2DD02FCE017E
:10218000810F911D8C01C017D10729F188E89AE0D1
:102190000E948717892BC1F40E948B216B017C015F
:1021A0000E948B21DC01CB018C199D09AE09BF096E
:1021B000883E9340A105B10580F488E89AE00E942A
:1021C0008717892B69F309C088E89AE00E948F1766
:1021D00088832196D8CF80E00DC088E89AE00E94DD
:1021E0008717892B89F761EA72E08EEA9BE00E94EB
:1021F000CD1E85E0CDB7DEB7E8E00C9440264F92C7
:102200005F926F927F928F929F92AF92BF92CF9286
:10221000DF92EF92FF92CF93DF9300D01F92CDB762
:10222000DEB7409158055091590560915A0570915B
:102230005B0580915605909157050E94021D1092F2
:10224000D1091092D0091092D3091092D20910929C
:10225000D7091092D6091092D5091092D409ECE64C
:10226000F9E080E090E021913191232BB1F4FC0161
:10227000EE0FFF1FE459F64F2CE834E03183208342
:1022800083589F4F909391048093900484E595E048
:10229000909393048093920404C001968931910530
:1022A00011F788E89AE00E941A188CE08093B80031
:1022B00087E08093420510924305109244051092E6
:1022C000450520E044E062E475E089E10E944410A5
:1022D0008111F7CF41E061E08BE60E947910811116
:1022E000F9CF41E062E475E085E70E948B1081112F
:1022F000F8CF80914205883639F06CE872E08EEABA
:102300009BE00E94901EFFCF64E670E080E090E0CA
:102310000E94B02146E062E475E08BE30E948B10DE
:102320008111F8CF609142057091430576276727A8
:102330007627072E000C880B990B0E9411246983C5
:102340007A838B839C836093340A7093350A8093DD
:10235000360A9093370A60914405709145057627B7
:1023600067277627072E000C880B990B0E941124F3
:102370004B015C016093300A7093310A8093320AFA
:102380009093330A60914605709147057627672739
:102390007627072E000C880B990B0E9411246B01E5
:1023A0007C0160932C0A70932D0A80932E0A9093DF
:1023B0002F0A9B01AC01C501B4010E94392321EE13
:1023C0003EE245E652E40E94F5242B013C01A501C2
:1023D0009401C501B4010E94F5244B015C01A701E1
:1023E0009601C701B6010E94F5249B01AC01C5010D
:1023F000B4010E94BA220E9468259B01AC01698148
:102400007A818B819C8190580E949D230E94692330
:1024100021EE3EE245E652E40E94F5246B017C0188
:10242000B301A20180E69AE00E948117B701A601DC
:1024300088E39AE00E94811740921A0A50921B0A80
:1024400060921C0A70921D0AC092160AD092170A56
:10245000E092180AF092190A4092120A5092130A56
:102460006092140A7092150AC0920E0AD0920F0A56
:10247000E092100AF092110A0E948B21609350059D
:102480007093510580935205909353050F900F90D0
:102490000F900F90DF91CF91FF90EF90DF90CF9052
:1024A000BF90AF909F908F907F906F905F904F9074
:1024B0000895A0E1B0E0EFE5F2E10C941C264EE0B7
:1024C00062E475E08BE30E948B108111F8CF60917C
:1024D000420570914305762767277627072E000C63
:1024E000880B990B0E9411246093340A7093350A6B
:1024F0008093360A9093370A6091440570914505A0
:10250000762767277627072E000C880B990B0E94E9
:1025100011246093300A7093310A8093320A9093A9
:10252000330A60914605709147057627672776271D
:10253000072E000C880B990B0E94112460932C0A23
:1025400070932D0A80932E0A90932F0A809148054C
:102550009091490598278927982790931F0A80937F
:102560001E0A60914A0570914B05762767277627EA
:10257000072E000C880B990B0E9411246093280AE7
:102580007093290A80932A0A90932B0A60914C0534
:1025900070914D05762767277627072E000C880B4C
:1025A000990B0E9411246093240A7093250A80934A
:1025B000260A9093270A60914E0570914F05762761
:1025C00067277627072E000C880B990B0E94112491
:1025D0006093200A7093210A8093220A9093230A21
:1025E0000E948B21C0905005D0905105E09052057B
:1025F000F09053056C197D098E099F090E940F24E4
:1026000020E034E244E759E40E949D2369837A8301
:102610008B839C830E948B2160935005709351059E
:102620008093520590935305C0902C0AD0902D0AA8
:10263000E0902E0AF0902F0A8090300A9090310A94
:10264000A090320AB090330AA7019601C501B401E7
:102650000E94392321EE3EE245E652E40E94F52431
:102660002B013C01A5019401C501B4010E94F52490
:102670004B015C01A7019601C701B6010E94F52438
:102680009B01AC01C501B4010E94BA220E946825D9
:102690009B01AC018091340A9091350AA091360AD1
:1026A000B091370ABC01CD0190580E949D230E9431
:1026B000692321EE3EE245E652E40E94F5246D874F
:1026C0007E878F87988B20E030E043E053E4609171
:1026D000280A7091290A80912A0A90912B0A0E9457
:1026E0009D236D837E838F83988720E030E043E0D5
:1026F00053E46091240A7091250A8091260A9091F2
:10270000270A0E949D234B015C0120E030E044EB4E
:1027100052ECC301B2010E94982387FF10C020E051
:1027200030E044EB52E460910A0A70910B0A809108
:102730000C0A90910D0A0E94E8241816D4F020E0AB
:1027400030E044EB52E4C301B2010E94E8241816C1
:102750007CF520E030E044EB52EC60910A0A709185
:102760000B0A80910C0A90910D0A0E94982387FF12
:102770001FC0B301A20180E69AE00E948117409237
:10278000120A5092130A6092140A7092150A40922B
:102790000A0A50920B0A60920C0A70920D0A40923B
:1027A0001A0A50921B0A60921C0A70921D0A16C0E7
:1027B000C980DA80EB80FC800D811E812F813885F5
:1027C000B301A20180E69AE00E941D1660930A0AF6
:1027D00070930B0A80930C0A90930D0AC0900A0A1A
:1027E000D0900B0AE0900C0AF0900D0A20E030E047
:1027F000A901C701B6010E94E82418165CF420E084
:1028000030E044EB52E4C701B6010E94E8241816F8
:102810005CF00EC020E030E044EB52ECC701B601A2
:102820000E94982387FF04C0B7FAB094B7F8B09419
:10283000C980DA80EB80FC80950184014D855E853E
:102840006F85788988E39AE00E941D1669877A87E8
:102850008B879C876093060A7093070A8093080A07
:102860009093090A2D813E814F81588569817A8133
:102870008B819C810E94F5246D837E838F83988752
:1028800020911A0A30911B0A40911C0A50911D0A8E
:102890000E94BA226B017C0160931A0A70931B0A92
:1028A00080931C0A90931D0A29813A814B815C8197
:1028B000C501B4010E94F52469837A838B839C83CC
:1028C0002091160A3091170A4091180A5091190A5E
:1028D0000E94BA224B015C016093160A7093170A9A
:1028E0008093180A9093190A2091120A3091130AC2
:1028F0004091140A5091150A6D817E818F819885CF
:102900000E94BA222BE734E14EE65FE30E94F524F1
:102910006D837E838F83988729E23CE54FE85DE3F2
:10292000C301B2010E94F5249B01AC016D817E813F
:102930008F8198850E94BA226093120A7093130ABD
:102940008093140A9093150A20910E0A30910F0A71
:102950004091100A5091110A69817A818B819C8182
:102960000E94BA222BE734E14EE65FE30E94F52491
:102970002B013C0129E23CE54FE85DE36D857E8556
:102980008F8598890E94F5249B01AC01C301B20197
:102990000E94BA2260930E0A70930F0A8093100A65
:1029A0009093110A20E030E044E353ECC701B601F4
:1029B0000E94982340900A0A50900B0A60900C0ADB
:1029C00070900D0A87FD0AC020E030E044E353E434
:1029D000C701B6010E94E824181644F440921A0A6E
:1029E00050921B0A60921C0A70921D0A20E030E08F
:1029F00044E353ECC501B4010E94982387FD0AC04B
:102A000020E030E044E353E4C501B4010E94E8242F
:102A1000181664F489859A85AB85BC858093160A5F
:102A20009093170AA093180AB093190A8DED93E0BA
:102A30009093A7048093A6048091340A9091350A5C
:102A4000A091360AB091370A80931205909313052E
:102A5000A0931405B09315058091300A9091310A26
:102A6000A091320AB091330A80931605909317050E
:102A7000A0931805B093190580912C0A90912D0A06
:102A8000A0912E0AB0912F0A80931A0590931B05EE
:102A9000A0931C05B0931D058091280A9091290AE6
:102AA000A0912A0AB0912B0A8093E0049093E1044C
:102AB000A093E204B093E3048091240A9091250A44
:102AC000A091260AB091270A8093E4049093E5042C
:102AD000A093E604B093E7048091200A9091210A24
:102AE000A091220AB091230A8093E8049093E9040C
:102AF000A093EA04B093EB0489859A85AB85BC85E5
:102B00008093AA049093AB04A093AC04B093AD045B
:102B10004092AE045092AF046092B0047092B1043F
:102B200080E090E0A0E8BFEB8093B2049093B30400
:102B3000A093B404B093B5048093B6049093B70403
:102B4000A093B804B093B904809192049091930437
:102B50006091900470919104DC01ED91FC910190E1
:102B6000F081E02D46E954E0199584E595E00E9456
:102B7000B80D62E070E080E090E00E94B0216096C5
:102B8000E0E10C943826A0E0B0E0E9ECF5E10C942B
:102B900024268C01EB01688179818A819B8120E068
:102BA0003AEC4AE95BE30E94E525F801C080D18058
:102BB000E280F380C20ED31EE41EF51EC082D182D5
:102BC000E282F382688379838A839B83CDB7DEB701
:102BD000E8E00C944026FC018FE692E1A3E8BAE31A
:102BE00080839183A283B38386EA9BE9A4E4BBE359
:102BF00084839583A683B7838FE892ECA5EFBCE32B
:102C000080879187A287B3871486158616861786D4
:102C1000108A118A128A138A108E118E128E138EC8
:102C2000148E158E168E178E10A211A212A213A248
:102C300014A215A216A217A20895AEE1B0E0E3E235
:102C4000F6E10C941C269E8F8D8F4D8B5E8B6F8BC7
:102C5000788FC901B801AD8DBE8D50962D913D91F3
:102C60004D915C915397298B3A8B4B8B5C8B0E94D7
:102C7000B922ED8DFE8D648B758B868B978BA701AA
:102C800096010E94F524AD8DBE8D1C962D913D912F
:102C90004D915C911F970E94BA226D877E878F8726
:102CA000988BAD8DBE8D94962D913D914D915C91FB
:102CB00097972D833E834F835887C701B6010E94A3
:102CC000F5242B013C01AD8DBE8D5C962D913D917F
:102CD0004D915C915F9729833A834B835C839096F7
:102CE0002D913D914D915C91939729873A874B8720
:102CF0005C8729813A814B815C810E94B9222985B8
:102D00003A854B855C850E94B922ED8DFE8D208130
:102D10003181428153810E94BA22A70196010E940B
:102D2000F524AD8DBE8D58962D913D914D915C91C0
:102D30005B970E94BA224B015C01A3019201698159
:102D40007A818B819C810E94B92269837A838B83EB
:102D50009C83A301920169857A858B859C850E945D
:102D6000B92269877A878B879C87ED8DFE8D2481B8
:102D7000358146815781C701B6010E94F5242D8116
:102D80003E814F8158850E94BA22698F7A8F8B8F3E
:102D90009C8FAD8DBE8D18962D913D914D915C917E
:102DA0001B97C501B4010E94BA226B017C019B01F3
:102DB000AC01C501B4010E949D232B013C01A70178
:102DC000960169857A858B859C850E949D236B0180
:102DD0007C012D853E854F8558896D897E898F8937
:102DE000988D0E94B9226D837E838F8398879B0183
:102DF000AC01C301B2010E94F5242D853E854F85AB
:102E000058890E94BA226D877E878F87988BED8DB7
:102E1000FE8D64877587868797872D813E814F81D8
:102E20005885C701B6010E94F52429893A894B8942
:102E30005C890E94BA22AD8DBE8D50966D937D93B4
:102E40008D939C935397A3019201C501B4010E94F5
:102E5000F5249B01AC01C501B4010E94B922ED8D9E
:102E6000FE8D608F718F828F938FA3019201698194
:102E70007A818B819C810E94F5249B01AC01698140
:102E80007A818B819C810E94B922AD8DBE8D5C962A
:102E90006D937D938D939C935F97A7019601C501D8
:102EA000B4010E94F5249B01AC0169857A858B856C
:102EB0009C850E94B922ED8DFE8D60A371A382A333
:102EC00093A3A701960169817A818B819C810E94DD
:102ED000F5249B01AC01698D7A8D8B8D9C8D0E94B0
:102EE000B922AD8DBE8D94966D937D938D939C93F9
:102EF00097976D857E858F8598896E96E0E10C9415
:102F00003826FC0144875587668777870895809126
:102F1000B80A90E02091B90A821B91090895909116
:102F2000B90A8091B80A981750F4E92FF0E0E654F6
:102F3000F54F208130E09F5F9093B90A02C02FEFD8
:102F40003FEFC9010895E091B90A8091B80AE817E6
:102F500030F4F0E0E654F54F808190E008958FEF73
:102F60009FEF08950895A0E0B0E0E9EBF7E10C943D
:102F700024267C01CB018A012091940A222389F026
:102F8000EB016B01C40ED51ECC15DD0569F069910E
:102F9000D701ED91FC910190F081E02DC7011995C9
:102FA000F3CF642F0E940819C801CDB7DEB7E8E05F
:102FB0000C944026A1E0B0E0E0EEF7E10C942A2664
:102FC00069832091940A2223D1F02091950A20321E
:102FD00040F021E030E0FC013383228380E090E088
:102FE00015C08091960AE82FF0E0E956F54F9981D7
:102FF00090838F5F8093960A8093950A05C061E065
:10300000CE0101960E94081981E090E02196E2E04D
:103010000C944626FC011382128288EE93E0A0E015
:10302000B0E084839583A683B78380E794E091839F
:10303000808308951092B90A1092B80A1092960AE5
:103040001092950A0E9454180895862F413208F074
:1030500040E26AEB7AE00E9472181092B90A8093FB
:10306000B80A089581E08093940A6093B70A109299
:10307000960A1092950A08950F93062F21E0409129
:10308000950A67E97AE08091B70A0E94B618109213
:10309000960A1092950A1092940A0F91089588E862
:1030A0009AE00E940A1808951092470B81E08093DD
:1030B000450B1092440B61E084E10E948A2261E09A
:1030C00085E10E948A22E9EBF0E080818E7F808397
:1030D00080818D7F808388E48093B80085E480932D
:1030E000BC000895413208F03FC09091470B911108
:1030F000FCCF91E09093470B2093450B2FEF20934B
:10310000DA0A10921F0B240F20931E0B9093460B8C
:103110009091460B880F892B8093460B8091440B2E
:10312000813041F41092440B8091460B8093BB0098
:1031300085EC01C085EE8093BC008091470B813007
:10314000E1F380911F0B841710F440911F0BA0E254
:10315000BBE0962FFB018E2F891B841718F48D91ED
:103160008193F9CF842F089580E008950F93413221
:1031700008F046C09091470B9111FCCF32E030939C
:10318000470B0093450B3FEF3093DA0A10921F0B69
:1031900040931E0B562FA0E2BBE0FB013E2F351BD8
:1031A000341718F431913D93F9CF1092460B3091BA
:1031B000460B880F832B8093460B8091440B813004
:1031C00041F41092440B8091460B8093BB0085EC38
:1031D00001C085EE8093BC00222321F08091470B33
:1031E0008230D1F38091DA0A8F3F79F08091DA0A48
:1031F000803241F08091DA0A803331F094E005C0EA
:1032000091E003C092E001C093E0892F0F910895EF
:10321000613298F42091470B243089F46093FC0AC2
:10322000282FAEEFBAE0FC018E2F821B861718F410
:1032300081918D93F9CF80E0089581E0089582E037
:10324000089585ED8093BC008091BC0084FDFCCF87
:103250001092470B089585EC8093BC001092470BA9
:1032600008951F920F920FB60F9211240BB60F9272
:103270002F933F934F935F936F937F938F939F937E
:10328000AF93BF93EF93FF938091B900887F80360F
:1032900009F49CC068F5883209F45BC090F4803171
:1032A00009F454C038F4882309F4F5C0883009F4CF
:1032B0004DC0F5C0883109F44CC0803209F45DC0BE
:1032C000EEC0803409F468C048F4803309F455C076
:1032D000883309F0E4C08093DA0AA8C0803509F485
:1032E0004FC0883509F45DC0883409F0D8C0D5C016
:1032F000883909F4C6C0A8F4883709F467C038F4DF
:10330000883609F463C0803709F460C0C8C08838C3
:1033100009F4B7C0803909F45FC0803809F0BFC034
:103320005BC0803B09F485C038F4803A09F466C07C
:10333000883A09F47EC0B3C0803C09F4A6C0883C3A
:1033400009F4A3C0883B09F489C0A9C08091460B49
:1033500010C090911F0B80911E0B981770F5E09193
:103360001F0B81E08E0F80931F0BF0E0E05EF44FA7
:1033700080818093BB0085EC85C08093DA0A8DC084
:10338000E0911F0B81E08E0F80931F0B8091BB009B
:10339000F0E0E05EF44F808390911F0B80911E0B54
:1033A0006DC0E0911F0B81E08E0F80931F0B809109
:1033B000BB00F0E0E05EF44F80838091450B81110B
:1033C0006CC081E08093440B84EA60C083E080930A
:1033D000470B1092DB0ACFCF8091DB0A803208F0D6
:1033E00050C0E091DB0A81E08E0F8093DB0A809170
:1033F000BB00F0E0E452F54F8083BDCF8091DB0A43
:10340000803230F4E091DB0AF0E0E452F54F1082B4
:103410000E9421196091DB0A70E0E091400BF0916D
:10342000410B8CED9AE019951092DB0A0E942B1942
:1034300036C084E08093470B1092FD0A1092FC0A7C
:10344000E091420BF091430B19958091FC0A811198
:1034500005C081E08093FC0A1092FE0AE091FD0A0B
:1034600081E08E0F8093FD0AF0E0E250F54F8081FD
:103470008093BB009091FD0A8091FC0A981708F494
:103480007ACF85E88093BC000AC085EC8093BC00AD
:103490001092470B04C01092DA0A0E942119FF9182
:1034A000EF91BF91AF919F918F917F916F915F91BC
:1034B0004F913F912F910F900BBE0F900FBE0F9029
:1034C0001F901895FC0124853585F901E05CFF4FBC
:1034D00080819181329620813181821B930B8F7381
:1034E00099270895DC011C96ED91FC911D97DF0151
:1034F000A05CBF4F2D913C91119712968D919C919C
:1035000011972817390739F08D919C91E80FF91F11
:10351000808190E008958FEF9FEF0895FC01A485CE
:10352000B585FD01E05CFF4F2081318132968081BD
:1035300091812817390779F080819181A80FB91FEF
:103540008C91208131812F5F3F4F2F73332731833F
:10355000208390E008958FEF9FEF0895FC0181A1F3
:10356000882329F0A489B5898C9186FFFBCF11A20D
:1035700008950F931F93CF93DF93FC01A685B78522
:103580008D01005C1F4FE8018881998101968F733E
:103590009927AD014E5B5F4FEA01288139812817D9
:1035A0003907D1F3E80128813981A20FB31F6C9349
:1035B000A685B785A05CBF4F11969C938E93A68974
:1035C000B7892C9181E090E0078C02C0880F991F89
:1035D0000A94E2F7822B8C9381E081A30488F58919
:1035E000E02D80818064808381E090E0DF91CF9145
:1035F0001F910F910895FB01E05CFF4F2081318105
:10360000DB01AE5BBF4F4D915C912F5F3F4F2F733E
:1036100033274217530741F040815181DB01A40F4A
:10362000B51F8C9331832083089508951F920F92C4
:103630000FB60F9211240BB60F922F933F934F9317
:103640005F936F937F938F939F93AF93BF93EF930A
:10365000FF938091C00082FD07C08091C6006CEA94
:103660007DE00E94FB1A02C08091C600FF91EF919D
:10367000BF91AF919F918F917F916F915F914F918A
:103680003F912F910F900BBE0F900FBE0F901F9088
:10369000189508951F920F920FB60F9211240BB632
:1036A0000F922F933F934F935F936F937F938F93DB
:1036B0009F93AF93BF93EF93FF938091C80082FDD8
:1036C00007C08091CE0064E27DE00E94FB1A02C038
:1036D0008091CE00FF91EF91BF91AF919F918F911B
:1036E0007F916F915F914F913F912F910F900BBE02
:1036F0000F900FBE0F901F90189508951F920F9274
:103700000FB60F9211240BB60F922F933F934F9346
:103710005F936F937F938F939F93AF93BF93EF9339
:10372000FF938091D00082FD07C08091D6006CE9A4
:103730007CE00E94FB1A02C08091D600FF91EF91BD
:10374000BF91AF919F918F917F916F915F914F91B9
:103750003F912F910F900BBE0F900FBE0F901F90B7
:10376000189508951F920F920FB60F9211240BB661
:103770000F922F933F934F935F936F937F938F930A
:103780009F93AF93BF93EF93FF938091300182FD9E
:1037900007C08091360164E17CE00E94FB1A02C000
:1037A00080913601FF91EF91BF91AF919F918F91E1
:1037B0007F916F915F914F913F912F910F900BBE31
:1037C0000F900FBE0F901F9018958EEA9BE00E94FD
:1037D000621A892B11F00E94151B8CE89BE00E9455
:1037E000621A892B11F00E94491B8AE69BE00E9415
:1037F000621A892B11F00E947D1B88E49BE00E94D5
:10380000621A892B11F00E94B11B08951F920F922A
:103810000FB60F9211240BB60F922F933F938F93F5
:103820009F93EF93FF932091A80D3091A90D809164
:10383000AA0D9091AB0D2817390731F48091C10082
:103840008F7D8093C10014C0E091AA0DF091AB0D63
:10385000E859F24F20818091AA0D9091AB0D01960D
:103860008F7399279093AB0D8093AA0D2093C60078
:10387000FF91EF919F918F913F912F910F900BBEF0
:103880000F900FBE0F901F9018951F920F920FB6BA
:103890000F9211240BB60F922F933F938F939F9308
:1038A000EF93FF932091200D3091210D8091220DF7
:1038B0009091230D2817390731F48091C9008F7D2D
:1038C0008093C90014C0E091220DF091230DE052C5
:1038D000F34F20818091220D9091230D01968F73DB
:1038E00099279093230D8093220D2093CE00FF9172
:1038F000EF919F918F913F912F910F900BBE0F9061
:103900000FBE0F901F9018951F920F920FB60F9237
:1039100011240BB60F922F933F938F939F93EF93A6
:10392000FF932091980C3091990C80919A0C909172
:103930009B0C2817390731F48091D1008F7D80933B
:10394000D10014C0E0919A0CF0919B0CE85AF34F0F
:10395000208180919A0C90919B0C01968F739927EE
:1039600090939B0C80939A0C2093D600FF91EF913B
:103970009F918F913F912F910F900BBE0F900FBE93
:103980000F901F9018951F920F920FB60F9211244F
:103990000BB60F922F933F938F939F93EF93FF93C9
:1039A0002091100C3091110C8091120C9091130CFD
:1039B0002817390731F4809131018F7D80933101CF
:1039C00014C0E091120CF091130CE053F44F2081DD
:1039D0008091120C9091130C01968F7399279093FC
:1039E000130C8093120C20933601FF91EF919F915D
:1039F0008F913F912F910F900BBE0F900FBE0F90A4
:103A00001F901895CF92DF92EF92FF92CF93DF93A2
:103A1000EC016A017B014115514E6105710509F107
:103A2000EC89FD8981E090E008A002C0880F991F11
:103A30000A94E2F7808360E079E08DE390E0A701EB
:103A400096010E94E525DA01C9010197A109B10992
:103A5000B695A795979587959C01211580E1380724
:103A6000A8F0EC89FD89108260E874E88EE190E0AE
:103A7000A70196010E94E525DA01C9010197A10974
:103A8000B109B695A795979587959C01E889F9891D
:103A90003083EA89FB89208319A2EE89FF8940815E
:103AA00081E090E09C010C8C02C0220F331F0A942D
:103AB000E2F7242B2083EE89FF8940819C010D8C45
:103AC00002C0220F331F0A94E2F7242B2083EE89D1
:103AD000FF8940819C010E8C02C0220F331F0A9483
:103AE000E2F7242B2083EE89FF8920810F8C02C00E
:103AF000880F991F0A94E2F7809582238083DF91D3
:103B0000CF91FF90EF90DF90CF900895CF92DF920A
:103B1000EF92FF92EEEAFBE01382128288EEC82E4B
:103B200083E0D82EE12CF12CC482D582E682F78284
:103B300060E874E0718360838CEA9DE095878487F8
:103B400088E69DE09787868785EC90E0918B808B57
:103B500084EC90E0938B828B80EC90E0958B848B4F
:103B600081EC90E0978B868B82EC90E0918F808F38
:103B700086EC90E0938F828F44E0448F33E0358F62
:103B800027E0268F95E0978F81E080A3ECE8FBE0AB
:103B900013821282C482D582E682F78271836083A7
:103BA000A4E2BDE0B587A487A0EEBCE0B787A687F6
:103BB000ADECB0E0B18BA08BACECB0E0B38BA28BE2
:103BC000A8ECB0E0B58BA48BA9ECB0E0B78BA68BCA
:103BD000AAECB0E0B18FA08FAEECB0E0B38FA28FB3
:103BE000448F358F268F978F80A3EAE6FBE0138200
:103BF0001282C482D582E682F78271836083ACE947
:103C0000BCE0B587A487A8E5BCE0B787A687A5ED8B
:103C1000B0E0B18BA08BA4EDB0E0B38BA28BA0ED94
:103C2000B0E0B58BA48BA1EDB0E0B78BA68BA2ED75
:103C3000B0E0B18FA08FA6EDB0E0B38FA28F448F1C
:103C4000358F268F978F80A3E8E4FBE013821282E2
:103C5000C482D582E682F7827183608364E17CE06E
:103C60007587648760ED7BE07787668765E371E041
:103C7000718B608B64E371E0738B628B60E371E046
:103C8000758B648B61E371E0778B668B62E371E027
:103C9000718F608F66E371E0738F628F448F358F11
:103CA000268F978F80A3FF90EF90DF90CF9008959D
:103CB000A0E0B0E0EEE5FEE10C9424266C01EB01FF
:103CC0007B01E40EF51E00E010E0CE15DF0561F08B
:103CD0006991D601ED91FC910190F081E02DC60132
:103CE0001995080F191FF1CFC801CDB7DEB7E8E06D
:103CF0000C9440266115710581F0FB0101900020B4
:103D0000E9F73197AF01461B570BDC01ED91FC91B0
:103D10000280F381E02D1995089580E090E00895E8
:103D2000EF92FF920F931F93CF93DF937C01FB01E0
:103D300000E010E06491EF012196662361F0D70165
:103D4000ED91FC910190F081E02DC7011995080FCC
:103D5000191FFE01EFCFC801CDB7DEB7E6E00C9426
:103D60004226DC01ED91FC910190F081E02D199546
:103D700008950F931F93CF93DF93EC016DE00E94A2
:103D8000B11E8C016AE0CE010E94B11E800F911F0E
:103D9000DF91CF911F910F9108950F931F93CF93B0
:103DA000DF93EC010E94901E8C01CE010E94B91E8F
:103DB000800F911FDF91CF911F910F910895A1E284
:103DC000B0E0E5EEFEE10C9420266C01142FE52F07
:103DD000CB01022F19A2223008F40AE07E0121E271
:103DE000E20EF11C802E912CA12CB12C612F7E2F84
:103DF000A50194010E94E525029F1019112481E07C
:103E0000E81AF1081A3014F4105D01C0195CF701CA
:103E10001083122FE32FCA01232B242B252B31F7DC
:103E2000B701C6010E947A1EA196ECE00C943C26D4
:103E30002115310549F4DC01ED91FC910190F081EF
:103E4000E02D642F199508950E94DF1E08959A01B0
:103E5000462F50E060E070E00E94181F08950F9315
:103E60001F93CF93DF93EC010E94271F8C01CE019B
:103E70000E94B91E800F911FDF91CF911F910F916A
:103E800008950E94D6210E94FF10C5EEDBE10E943A
:103E900059122097E1F30E94E51BF9CF0F931F936E
:103EA000CF93DF938230910510F482E090E0E091AF
:103EB000FB0DF091FC0D20E030E0A0E0B0E0309789
:103EC00019F1408151810281138148175907C8F0C7
:103ED0008417950769F4109731F012960C93129796
:103EE00013961C9327C00093FB0D1093FC0D22C06A
:103EF0002115310519F04217530718F49A01BD0135
:103F0000EF01DF01F801DBCF21153105F9F0281BA6
:103F1000390B2430310580F48A819B81611571054C
:103F200021F0FB019383828304C09093FC0D809366
:103F3000FB0DFE01329644C0FE01E20FF31F819398
:103F4000919322503109398328833AC02091F90D89
:103F50003091FA0D232B41F420910202309103029B
:103F60003093FA0D2093F90D209100023091010257
:103F70002115310541F42DB73EB74091040250910F
:103F80000502241B350BE091F90DF091FA0DE217B3
:103F9000F307A0F42E1B3F0B2817390778F0AC016C
:103FA0004E5F5F4F2417350748F04E0F5F1F509349
:103FB000FA0D4093F90D8193919302C0E0E0F0E097
:103FC000CF01DF91CF911F910F910895CF93DF9390
:103FD000009709F481C0FC01329713821282A091EC
:103FE000FB0DB091FC0D109781F420813181820F7F
:103FF000931F2091F90D3091FA0D2817390751F5CB
:10400000F093FA0DE093F90D67C0ED0120E030E088
:10401000CE17DF0740F44A815B819E0141155105AF
:10402000F1F0EA01F5CFD383C28340815181840F3F
:10403000951FC817D90759F488819981840F951F56
:104040000296918380838A819B8193838283211549
:10405000310529F4F093FC0DE093FB0D3DC0E9011F
:10406000FB83EA8349915991C40FD51FEC17FD07D3
:1040700061F480819181840F951F0296E9019983F3
:104080008883828193819B838A83E0E0F0E01296AB
:104090008D919C911397009719F0FD01DC01F7CFEA
:1040A0008D919C9111979D012E5F3F4F820F931F21
:1040B0002091F90D3091FA0D2817390769F43097DE
:1040C00029F41092FC0D1092FB0D02C01382128293
:1040D000B093FA0DA093F90DDF91CF910895A0E070
:1040E000B0E0E5E7F0E20C941E26EC01009721F425
:1040F000CB010E944E1FB4C0FC01E60FF71F9C01CC
:1041000022503109E217F30708F4A8C0D9010D9134
:104110001C91119706171707B0F00530110508F428
:104120009BC0C80104978617970708F495C00250F2
:104130001109061B170B019311936D937C93CF010B
:104140000E94E61F89C05B01A01AB10A4C01800ED3
:10415000911EA091FB0DB091FC0D612C712CE12CF6
:10416000F12C109709F446C08D919C911197A815D8
:10417000B905B1F56C0142E0C40ED11CCA14DB04D0
:1041800078F14C018A189B08640142E0C40ED11CEE
:104190001296BC9012971396AC91B5E0CB16D10451
:1041A00040F0B282A38391828082D9016D937C9387
:1041B00009C00E5F1F4F800F911FF901918380830B
:1041C000EB2DFA2FE114F10431F0D7011396FC9393
:1041D000EE93129741C0F093FC0DE093FB0D3CC0B1
:1041E0006816790608F43C017D0112960D90BC9189
:1041F000A02DB7CF8091F90D9091FA0D88169906F0
:10420000E1F466167706C8F48091000290910102ED
:10421000009741F48DB79EB740910402509105027A
:10422000841B950BE817F907C8F4F093FA0DE09397
:10423000F90DF901718360830FC0CB010E944E1FFD
:104240007C01009759F0A801BE010E947426CE019E
:104250000E94E61FC70104C0CE0102C080E090E0CA
:10426000CDB7DEB7EEE00C943A261F920F920FB650
:104270000F9211242F933F938F939F93AF93BF93EC
:104280008091F10D9091F20DA091F30DB091F40D8C
:104290003091F00D23E0230F2D3720F40196A11D5E
:1042A000B11D05C026E8230F0296A11DB11D209364
:1042B000F00D8093F10D9093F20DA093F30DB09358
:1042C000F40D8091F50D9091F60DA091F70DB09140
:1042D000F80D0196A11DB11D8093F50D9093F60D7B
:1042E000A093F70DB093F80DBF91AF919F918F916F
:1042F0003F912F910F900FBE0F901F9018952FB7E1
:10430000F8946091F10D7091F20D8091F30D909100
:10431000F40D2FBF08953FB7F8948091F50D90915B
:10432000F60DA091F70DB091F80D26B5A89B05C02C
:104330002F3F19F00196A11DB11D3FBFBA2FA92F24
:10434000982F8827820F911DA11DB11DBC01CD01A1
:1043500042E0660F771F881F991F4A95D1F708958D
:10436000CF92DF92EF92FF92CF93DF936B017C01AC
:104370000E948B21EB01C114D104E104F10479F016
:104380000E948B216C1B7D0B683E7340A0F381E083
:10439000C81AD108E108F108C851DC4FECCFDF9111
:1043A000CF91FF90EF90DF90CF900895789484B5EF
:1043B000826084BD84B5816084BD85B5826085BD21
:1043C00085B5816085BDEEE6F0E080818160808307
:1043D000E1E8F0E0108280818260808380818160EA
:1043E0008083E0E8F0E0808181608083E1EBF0E0B1
:1043F000808184608083E0EBF0E080818160808355
:10440000E1E9F0E080818260808380818160808347
:10441000E0E9F0E0808181608083E1EAF0E0808182
:1044200082608083808181608083E0EAF0E0808127
:1044300081608083E1E2F1E080818260808380811D
:1044400081608083E0E2F1E0808181608083EAE73F
:10445000F0E08081846080838081826080838081BD
:10446000816080838081806880831092C10008957C
:1044700090E0FC013197E131F10508F04AC088274E
:10448000EE58FF4F8F4F0C940726809180008F7756
:1044900003C0809180008F7D80938000089584B553
:1044A0008F7702C084B58F7D84BD08958091B00060
:1044B0008F7703C08091B0008F7D8093B000089506
:1044C000809190008F7707C0809190008F7D03C00E
:1044D00080919000877F8093900008958091A00044
:1044E0008F7707C08091A0008F7D03C08091A000CE
:1044F000877F8093A0000895809120018F7707C067
:10450000809120018F7D03C080912001877F80935F
:10451000200108951F93CF93DF93282F30E0F901F6
:10452000EC52FD4F8491F901E65EFC4FD491F90104
:10453000E05AFC4FC491CC23C1F0162F81110E9488
:104540003822EC2FF0E0EE0FFF1FEA55FC4FA5914B
:10455000B4919FB7F894111104C08C91D095D823D1
:1045600002C0EC91DE2BDC939FBFDF91CF911F91B6
:1045700008955058BB27AA270E94D1220C94AE243C
:104580000E94A02438F00E94A72420F039F49F3F15
:1045900019F426F40C9476240EF4E095E7FB0C94C1
:1045A0007024E92F0E94BF2458F3BA1762077307DB
:1045B0008407950720F079F4A6F50C94E1240EF415
:1045C000E0950B2EBA2FA02D0B01B90190010C0123
:1045D000CA01A0011124FF27591B99F0593F50F43B
:1045E000503E68F11A16F040A22F232F342F442793
:1045F000585FF3CF469537952795A795F04053958B
:10460000C9F77EF41F16BA0B620B730B840BBAF05A
:104610009150A1F0FF0FBB1F661F771F881FC2F7C5
:104620000EC0BA0F621F731F841F48F487957795D9
:104630006795B795F7959E3F08F0B0CF9395880F93
:1046400008F09927EE0F9795879508950E94A0246A
:1046500060F080E891E009F49EEF0E94A72428F022
:1046600040E851E071F45EEF0CC00C9476240C9499
:10467000E124E92FE0780E94BF2440F3092E052AA7
:10468000B1F3261737074807590738F00E2E07F8F9
:10469000E02569F0E025E0640AC0EF6307F80094C4
:1046A00007FADB01B9019D01DC01CA01AD01EF93FD
:1046B0000E94B4230E94AE240E9469235F91552377
:1046C00039F02BED3FE049E450FD49EC0C94BA225F
:1046D0000895DF93DD27B92FBF7740E85FE3161613
:1046E000170648075B0718F4D92F0E94ED249F9303
:1046F0008F937F936F930E94A825E6E0F1E00E94DC
:1047000079240E94AE242F913F914F915F910E9496
:104710000825DD2351F09058A2EA2AED3FE049EC4C
:104720005FE3D0785D270E94D122DF910C94AE2404
:104730000E944C2408F481E008950E94B1230C9457
:10474000AE240E94A72458F00E94A02440F029F42F
:104750005F3F29F00C94702451110C94E2240C94C6
:1047600076240E94BF2468F39923B1F3552391F373
:10477000951B550BBB27AA2762177307840738F0D0
:104780009F5F5F4F220F331F441FAA1FA9F335D02D
:104790000E2E3AF0E0E832D091505040E695001CE1
:1047A000CAF72BD0FE2F29D0660F771F881FBB1F9B
:1047B000261737074807AB07B0E809F0BB0B802D79
:1047C000BF01FF2793585F4F3AF09E3F510578F0A5
:1047D0000C9470240C94E2245F3FE4F3983ED4F3ED
:1047E000869577956795B795F7959F5FC9F7880F79
:1047F000911D9695879597F90895E1E0660F771FCB
:10480000881FBB1F621773078407BA0720F0621B5B
:10481000730B840BBA0BEE1F88F7E0950895E894AC
:1048200009C097FB3EF490958095709561957F4FF8
:104830008F4F9F4F9923A9F0F92F96E9BB279395A6
:10484000F695879577956795B795F111F8CFFAF4B6
:10485000BB0F11F460FF1BC06F5F7F4F8F4F9F4FE7
:1048600016C0882311F096E911C0772321F09EE845
:10487000872F762F05C0662371F096E8862F70E0AB
:1048800060E02AF09A95660F771F881FDAF7880F85
:104890009695879597F90895990F0008550FAA0BDB
:1048A000E0E8FEEF16161706E807F907C0F0121643
:1048B0001306E407F50798F0621B730B840B950B46
:1048C00039F40A2661F0232B242B252B21F408959B
:1048D0000A2609F4A140A6958FEF811D811D089538
:1048E00097F99F6780E870E060E008959FEF80ECA3
:1048F0000895DF93CF931F930F93FF92EF92DF9270
:104900007B018C01689406C0DA2EEF010E94082515
:10491000FE01E894A5912591359145915591A6F315
:10492000EF010E94D122FE019701A801DA9469F7F4
:10493000DF90EF90FF900F911F91CF91DF9108953D
:1049400000240A941616170618060906089500246E
:104950000A9412161306140605060895092E0394E8
:10496000000C11F4882352F0BB0F40F4BF2B11F45C
:1049700060FF04C06F5F7F4F8F4F9F4F089557FDBB
:104980009058440F551F59F05F3F71F04795880FBD
:1049900097FB991F61F09F3F79F087950895121654
:1049A00013061406551FF2CF4695F1DF08C0161600
:1049B00017061806991FF1CF8695710561050894B1
:1049C0000895E894BB2766277727CB0197F90895C8
:1049D0000E944C2408F48FEF08959B01AC0160E025
:1049E00070E080E89FE30C949D230E9408250C94BE
:1049F000AE240E94A02438F00E94A72420F0952322
:104A000011F00C9470240C94762411240C94E2245C
:104A10000E94BF2470F3959FC1F3950F50E0551F7E
:104A2000629FF001729FBB27F00DB11D639FAA2703
:104A3000F00DB11DAA1F649F6627B00DA11D661F52
:104A4000829F2227B00DA11D621F739FB00DA11D73
:104A5000621F839FA00D611D221F749F3327A00D2D
:104A6000611D231F849F600D211D822F762F6A2FC9
:104A700011249F5750409AF0F1F088234AF0EE0F2E
:104A8000FF1FBB1F661F771F881F91505040A9F75B
:104A90009E3F510580F00C9470240C94E2245F3FFB
:104AA000E4F3983ED4F3869577956795B795F79597
:104AB000E7959F5FC1F7FE2B880F911D969587950F
:104AC00097F9089519F416F40C9476240C94AC25F7
:104AD0000E94C724B8F39923C9F3B6F39F57550B27
:104AE00087FF0E94BA250024A0E640EA9001805882
:104AF0005695979528F4805C660F771F881F20F0E5
:104B000026173707480730F4621B730B840B2029E4
:104B100031294A2BA69517940794202531254A2739
:104B200058F7660F771F881F20F0261737074807AA
:104B300030F4620B730B840B200D311D411DA095C9
:104B400081F7B901842F9158880F9695879508951C
:104B50009B01AC010C94F5249F3F31F0915020F45F
:104B6000879577956795B795880F911D9695879549
:104B700097F9089591505040660F771F881FD2F71C
:104B80000895DB018F939F930E940F26BF91AF91F1
:104B9000A29F800D911DA39F900DB29F900D112497
:104BA000089597FB072E16F4009407D077FD09D0DF
:104BB0000E94512607FC05D03EF4909581959F4FA9
:104BC0000895709561957F4F0895A1E21A2EAA1B52
:104BD000BB1BFD010DC0AA1FBB1FEE1FFF1FA217AD
:104BE000B307E407F50720F0A21BB30BE40BF50BAA
:104BF000661F771F881F991F1A9469F76095709533
:104C0000809590959B01AC01BD01CF010895EE0FF9
:104C1000FF1F881F8BBF0790F691E02D19940E940B
:104C20006526A59F900DB49F900DA49F800D911DAA
:104C3000112408952F923F924F925F926F927F922C
:104C40008F929F92AF92BF92CF92DF92EF92FF929C
:104C50000F931F93CF93DF93CDB7DEB7CA1BDB0B48
:104C60000FB6F894DEBF0FBECDBF19942A883988DD
:104C700048885F846E847D848C849B84AA84B984F4
:104C8000C884DF80EE80FD800C811B81AA81B98100
:104C9000CE0FD11D0FB6F894DEBF0FBECDBFED0114
:104CA0000895AA1BBB1B51E107C0AA1FBB1FA61773
:104CB000B70710F0A61BB70B881F991F5A95A9F7C5
:104CC00080959095BC01CD010895A29FB001B39F3E
:104CD000C001A39F700D811D1124911DB29F700D05
:104CE000811D1124911D0895FB01DC0102C001907A
:0E4CF0000D9241505040D8F70895F894FFCF30
:104CFE000000FD0D80007374645F6D7367732F5435
:104D0E00696D650063643731363663373463353524
:104D1E0032633331316662636332666535613762A1
:104D2E006332383900726F7373657269616C5F6DCF
:104D3E007367732F546F706963496E666F003061CD
:104D4E0064353166383866633434383932663863E0
:104D5E0031303638343037373634363030350072FD
:104D6E006F7373657269616C5F6D7367732F4C6FD0
:104D7E006700313161626437333163323539333331
:104D8E0032363163643631383362643132643632EE
:104D9E0039350039663065393862646136353938EF
:104DAE003139383664646635336166613761343063
:104DBE00653439007374645F6D7367732F48656172
:104DCE0064657200323137366465636165636263B0
:104DDE0065373861626333623936656630343966F9
:104DEE00616265640067656F6D657472795F6D737E
:104DFE0067732F5175617465726E696F6E006137DE
:104E0E003739383739666164663031363037333486
:104E1E006639303662386331396337303034006783
:104E2E00656F6D657472795F6D7367732F56656309
:104E3E00746F723300346138343262363566343111
:104E4E0033303834646332623130666234383465FC
:104E5E0061376631370073656E736F725F6D73679E
:104E6E00732F496D75003661363263366461616544
:104E7E0031303366346666353761313332643666C7
:104E8E00393563656332004D6573736167652066FE
:104E9E00726F6D206465766963652064726F7070E1
:104EAE0065643A206D657373616765206C61726726
:104EBE006572207468616E206275666665722E007A
:104ECE00696D752F646174615F72617700696D75CC
:104EDE005F6C696E6B000000000016023A028002E1
:104EEE008302000000007D078C0886028902000004
:104EFE0000004D0736088C028F0200000000740679
:104F0E0055099202950200000000C205E70A9802B8
:104F1E009B0200000000E403C6049E02A1020000F2
:104F2E000000B603F804A402A70200000000030666
:104F3E00A00BAA02AD0200000000B502B80DB0022F
:104F4E00726F7373657269616C5F6D7367732F52E5
:104F5E00657175657374506172616D0000000000BB
:104F6E00DA17B31787178F17A317B21700000000B1
:0C4F7E00B91A581E621A8E1A721AAE1A66
:00000001FF
